:10000000C0180020F9290000AF6E0000CD290000C3
:10001000CD290000CD290000CD29000000000000FE
:10002000000000000000000000000000FD220000B1
:10003000CD29000000000000A9220000CD29000009
:10004000AD230000AD230000AD230000AD23000070
:10005000AD230000AD230000AD230000AD23000060
:10006000AD230000AD230000AD230000AD23000050
:10007000AD230000AD230000AD230000AD23000040
:10008000AD230000AD230000AD230000AD23000030
:10009000AD230000AD230000AD230000AD23000020
:1000A000AD230000AD230000AD230000AD23000010
:1000B000AD230000AD230000AD230000AD23000000
:1000C000AD230000AD230000AD230000AD230000F0
:1000D000AD230000AD230000AD230000AD230000E0
:1000E000AD230000AD230000AD230000AD230000D0
:1000F000AD230000AD230000AD230000AD230000C0
:1001000053B94AB9002908BF00281CBF4FF0FF317E
:100110004FF0FF3000F00CB8ADF1080C6DE904CEE3
:1001200000F008F8DDF804E0DDE9022304B07047D0
:10013000704700BF2DE9F04F07468C460846099EE0
:1001400015463C461946002B40F0C6808242B2FA62
:1001500082F746D94FB1C7F1200E24FA0EFE00FAFD
:1001600007F3BD404EEA030CBC404FEA15481FFAA6
:1001700085FEBCFBF8F9220C08FB19C309FB0EFA3B
:1001800042EA03439A4528D9EB1809F1FF3004D21B
:100190009A4502D9A9F102002B44A3EB0A03A4B2A9
:1001A000B3FBF8F208FB123302FB0EFE44EA0344F1
:1001B000A64514D92C1902F1FF3303D2A64501D963
:1001C000931E2C44A4EB0E0443EA00401EB1FC40F5
:1001D000002334607360BDE8F08F4846DDE71346C6
:1001E000F0E702B9FFDE87BB831A01214FEA154E03
:1001F000AAB2B3FBFEFC200C0EFB1C330CFB02F876
:1002000040EA0343984563D9EB180CF1FF3004D260
:10021000984502D9ACF102002B44A3EB0803A4B229
:10022000B3FBFEFC0EFB1C330CFB02F244EA03445E
:10023000A2424FD92C190CF1FF3304D2A24202D9A9
:10024000ACF102032C44A41ABEE7C7F1200C20FA3B
:100250000CF800FA07F324FA0CFCBD404CEA030248
:100260004FEA154EABB2B8FBFEFC110C0EFB1C8026
:100270000CFB03F941EA0040814504FA07F423D955
:1002800028180CF1FF3104D2814502D9ACF10201EA
:100290002844A0EB090092B2B0FBFEFC0EFB1C0050
:1002A0000CFB03F842EA004398450FD9EB180CF118
:1002B000FF3204D2984502D9ACF102022B44A3EBE1
:1002C000080342EA014191E76146E2E76246F6E748
:1002D0006046A2E76346B6E7834205D90EB1C6E998
:1002E00000700021084676E7B3FA83F181B98342B2
:1002F00001D3BA420AD8BC1A60EB030301209C4622
:10030000002E68D0C6E9004C002164E70846F7E7F4
:10031000C1F1200C8B4022FA0CF41C4302FA01F5C7
:1003200000FA01F327FA0CF220FA0CFB4FEA144909
:100330001343BBFBF9F81FFA84FE09FB18BB1A0C28
:1003400008FB0EFA42EA0B42924507FA01F73ED942
:10035000A21808F1FF3004D2924502D9A8F1020098
:100360002244A2EB0A029BB2B2FBF9F809FB182265
:1003700008FB0EFE43EA024296452AD9A21808F16C
:10038000FF3304D2964502D9A8F10203224443EA7E
:100390000040A0FB0593A2EB0E029A42CE4698467F
:1003A00002D306D14F4504D2B9EB050E63EB040826
:1003B000013886B1B7EB0E0362EB080707FA0CFCB5
:1003C000CB404CEA0303CF40C6E900379CE74046E8
:1003D000C7E74346DBE73146FDE6000080B501385C
:1003E00000AF072850D8DFE800F004224F314F4F0C
:1003F0004F400121002003F0E9FD002140F6CD40EF
:1004000005F08CFC0021084603F0E0FD012388B0D4
:100410006A461E49C2E90513032342F8103F1C48EF
:1004200000234FF4C65101F0CDF9BD4680BD012136
:10043000084603F0CBFD002140F6CD4005F06EFCF0
:100440000021012003F0C2FD0223E0E70121022088
:1004500003F0BCFD002140F6CD4005F05FFC00211B
:10046000022003F0B3FD0323D1E70121032003F0B1
:10047000ADFD002140F6CD4005F050FC00210320E9
:1004800003F0A4FD0423C2E70023C0E7E87F0000D7
:10049000AC7C000098B500AF6C4688B06A46254B2E
:1004A0005361254B936102231377244B42F8103F8D
:1004B000234800234FF4D65101F084F9A54603F0F8
:1004C000B1FC70B188B06A461E4BC2E90530032307
:1004D00042F8103F1A4800234FF4C25101F072F95C
:1004E000A546194803F0DCFC78B16C4688B06A4632
:1004F000164BC2E90530032342F8103F1048002391
:100500004FF4C25101F05EF9A54600F077F878B1DA
:100510006C4688B06A460E4BC2E90530032342F8A8
:10052000103F074800234FF4C25101F04BF9A54694
:10053000BD4698BDFA7F00000B800000030000015B
:10054000AC7C00001F800000556600003B8000006E
:100550005A8000007FB5074B059302230493064899
:10056000002304AA4FF4865101F02CF907B05DF87E
:1005700004FB00BF79800000E47C0000F0B585B08A
:1005800000220121032000AF01F03CFE032001F016
:100590001BFE03250423C7E900354FF0C86207237B
:1005A000C7E902231048114A0023394604F0A0FA93
:1005B0000F4B9842044612D06E4688B06A460D4BE7
:1005C000C2E9053042F8105F0B4800234FF4C251D6
:1005D00001F0F8F8E0B2B5461437BD46F0BD024868
:1005E00004F0E8FA0020F7E7287D00005505000038
:1005F0000000AD0B87800000E47C00007FB5084B55
:100600000593022304930748002304AA4FF486515C
:1006100001F0D8F807B05DF804EBFFF7AFBF00BFFB
:10062000A2800000E47C00002DE9F04F93B0044666
:10063000DDF870A001921F468B4649B903784678D1
:10064000807800EB83002044B34518D3A0EB040B63
:10065000A5780395E5B10AF00103E278029212B1A0
:100660001AF0020F16D1ABB9019B1BB13A4659469D
:10067000204698475E46304613B0BDE8F08F451CD3
:10068000284606F01EFC013028440BF1010BDBE785
:100690002B46E2E794F800904FEA89020492019A0F
:1006A00004EB8909002A5AD15E4693B34D4417469C
:1006B000A9451CD1DDF80880DFF834C28D490AF065
:1006C000050B4D46C8440AF00202A845D3D015F8E0
:1006D000010B54F82000604524D3884222D21AF03E
:1006E000010F39D1BBF1000FEFD1013EEDE719F851
:1006F000013B54F8230006F0E4FB1D9B013033B1AD
:100700001E9B9F423EBF1D9B23F8170001370644E6
:10071000CEE72DB11AF00407CCD0A9441F46C9E793
:100720002F46C7E7002AD0D04FF00009019206F00B
:10073000C8FB1D9BDFF8B8C1019A6E49013033B187
:100740001E9B9F423EBF1D9B23F8170001370644A6
:10075000B9F1000FB9D0C5E74FF00109E6E7002B6A
:1007600040F0B98025B11AF0040F40F0BC801D465E
:10077000A846039B9944029B03EB090C0AF004036F
:100780004A460AF001000AF0020E059394454FD143
:10079000029B4B4406932378059363781AF0020F6B
:1007A00003EB0502D2B20CBFC4464FF0000C002888
:1007B00060D11AF0040F14BF4146002194F802A042
:1007C000E67807936270A170019B049984F803C0D6
:1007D0003A4620469847B0F1000978DB059B237024
:1007E000079B6370E670019B84F802A03A4641467D
:1007F0000EA89847061EFFF63EAFDDE90231194408
:10080000049B069819443A46019BABEB01019847BB
:1008100000285EDB4E4406444FF000090DF1280B22
:100820004D4529DC0021019B3A460846984722E7BE
:1008300012F8013B2E4E54F82310B14202D32D4E34
:10084000B1420BD3BEF1000F09D112AE08F1010184
:10085000B04408F8103C5FFA81F897E730B112AE67
:10086000691C354405F8203CCDB28FE70599002975
:100870008CD0EAE70021A1E719F80B308DF827307A
:1008800054F823A01D9BFBB133F81980019B3A4615
:1008900001210DF12700984700281ADB0644B8F122
:1008A000000F06D1504606F00CFB00F101081FFABC
:1008B00088F8019B3A46414650469847002808DB95
:1008C000064409F10109ABE7DDF87480DEE74E4626
:1008D000D1E60646CFE60AA84FF00008039A49463B
:1008E00006F0FFFA45E7A8460EA81D46F6E700BF4A
:1008F0002C7A0000FC880000014B1B68184700BFE1
:1009000000000020014B1860704700BF000000206D
:1009100007B50B46002102460091034800F0FCF8A1
:1009200003B05DF804FB00BFF908000030B587B0E4
:100930000025CDE903010446009503A90548059566
:1009400000F0EAF8DDE904309842B8BF255407B05A
:1009500030BD00BFFB6600002DE9F84FB0F81890DD
:1009600019F00808044693460DD001290CBF49F040
:10097000100949F02009A0F818908BF31188BFF3F3
:100980006F8FBDE8F88F09F00709022907D12046CB
:1009900005F0E0FE0028F0D00128238B4ED16769D6
:1009A000218B002F15DA256821F00701C4E90088A2
:1009B00041F0010121830026218B01F0070ACA457D
:1009C00002D0A368002B5AD10DB9002E71D000239C
:1009D00056E001F007035A1F012A1ED821F0070133
:1009E000062B256889B2C4E900880AD13DB1638B22
:1009F0002A46126801339BB2002AFAD1638341F080
:100A000002012183204605F0A5FE06460028D3D02A
:100A1000238B43F020032383CDE7042B0CD121F05B
:100A2000070189B22183204605F094FE054600287F
:100A3000C1D041F0200121830025BCE7032809D162
:100A4000226923F00703166843F006032383002579
:100A50002F46B1E7042806D1226923F00703566820
:100A600043F00403F2E7052806D1226923F00703C7
:100A7000966843F00503E9E700252E46E8E70123E1
:100A800041F0080121838BF31188BFF36F8FFBB90D
:100A900085BB16B11F492046B0474FF02003EFF346
:100AA000118B83F31288BFF36F8F238B23F008031E
:100AB0002383238BDA0625D523F01003238301211A
:100AC000B4F8189009F0070900297FF45EAF54E7E5
:100AD000A1680029DCD0D1F80090D1F804B03B46E1
:100AE00052462046D847B9F1000FD1D04946D9F82F
:100AF0000090F2E729463B46524620462D6805F015
:100B000045FEC5E713F020011EBF23F02003238319
:100B10000221D5E7B96700002DE9F04F91B08B466F
:100B2000029092461C4600259AF8000008B9284613
:100B300063E325280AF1010707D0029B594698472D
:100B40000028C0F25A83013512E2182200210AA8B7
:100B500006F0D2F99AF80130252B78D00022104601
:100B6000964694461646394617F8013B2B2B00F063
:100B70009D8000F29480202B00F09B80232B00F0BE
:100B80009B802EB19DF8306046F004068DF83060F1
:100B9000BCF1000F05D09DF8306046F008068DF8D6
:100BA0003060BEF1000F05D09DF8306046F01006B1
:100BB0008DF8306028B19DF8300040F020008DF8AD
:100BC00030002AB19DF8302042F040028DF83020EC
:100BD0009DF8302002F04400442803D16FF38612C0
:100BE0008DF830209DF830202A2B42F080028DF8BD
:100BF00030207BD19DF8312042F001024B1C8DF852
:100C000031201A782E2A9DF831200CBF01210021B5
:100C100061F341028DF8312074D15A782A2A6AD0C2
:100C2000013300210A26184610F8012BA2F13007E3
:100C3000092F40F28E809DF830200E91C2F34000C3
:100C400040EAD17161F341028DF830205AE00AF197
:100C500002078DF833309DF83130D90740F14981D2
:100C600054F8049BB9F1000F07DA9DF8302042F0E8
:100C700004028DF83020C9F100095A0740F1428181
:100C800054F8048BB8F1000F80F241819DF83130A7
:100C90006FF341038DF831304FF0FF3837E12D2BE2
:100CA0000CD0302B7FF46DAF01225CE74FF0010CCC
:100CB00059E74FF0010E56E7012054E7012652E7AD
:100CC0000CFB0202303A33461E4616F8010BA0F127
:100CD0003007092FF4D9994293D09DF830100D9226
:100CE000D20F62F341018DF830108AE70B460022E3
:100CF0004FF00A0CE8E79DF8312042F004028DF82D
:100D0000312002331F4617F8012B6C2A41D025D819
:100D1000682A2BD06A2A46D04C2A4CD01F4617F896
:100D2000012B9DF831308DF83320782A00F2D980DC
:100D3000572A4DD8412A03D0453A022A00F2D180E1
:100D40009DF83230042262F302038DF83230012321
:100D50009EE006FB01213039034664E7742A26D061
:100D60007A2ADBD19DF8313006220DE05A78682AC4
:100D70009DF8312006D1012161F3C6028DF83120A2
:100D80009F1CCCE71346022262F3C6038DF8313074
:100D9000C5E75A786C2A9DF8312001D10421EBE790
:100DA00013460322F0E79DF831300522ECE79DF869
:100DB00031300722E8E7BDF8303023F4F04323F068
:100DC000020343F4804343F00203ADF83030A6E75A
:100DD000A2F15801202900F2848001A050F821F0EE
:100DE000A50E0000E30E0000E30E0000E30E00007D
:100DF000E30E0000E30E0000E30E0000E30E00002F
:100E0000E30E0000410D0000E30E0000A50E0000FF
:100E1000650E0000410D0000410D0000410D000075
:100E2000E30E0000650E0000E30E0000E30E00007C
:100E3000E30E0000E30E0000AD0E0000A50E000062
:100E4000C90E0000E30E0000E30E0000C90E000012
:100E5000E30E0000A50E0000E30E0000E30E00000C
:100E6000A50E00009DF83210012003F0780360F316
:100E70000201402B8DF8321002BF9DF8301041F076
:100E800001018DF83010632A31D1003B18BF0123D6
:100E90009DF83020C2F340010B4363F341028DF80B
:100EA0003020D8E69DF832100220DEE79DF832208F
:100EB00003F07803A3F14000032161F302024342EF
:100EC0008DF832204341E3E79DF83220032113F0EF
:100ED000780F61F302028DF8322014BF0123002342
:100EE000D6E79DF8303043F001038DF83030002311
:100EF000CEE79DF93020002AB4BFDDF834904FF0E2
:100F0000FF39BAE69B077FF5C7AEDDF838809DF85C
:100F100031100023CDE90D339DF8323003F0070383
:100F2000012BC1F3C30135D1CB1E042B22D8DFE83E
:100F300003F003090921210054F8043BDA17CDE935
:100F40000A3206E0073424F00704F4E80223CDE96E
:100F50000A239DF8303013F0030659D002983B461F
:100F60005246594605F0F1FC0028C0F2468105447E
:100F7000BA46D9E554F8043B01294FEAE372CDE9BA
:100F80000A3202D19DF92830D8E70229E1D1BDF912
:100F90002830D3E7022B29D1CB1E042B13D8DFE84E
:100FA00003F0030A0A12120022680A920023201D8D
:100FB0000B930446CDE7E01D20F00700F0E8022384
:100FC000CDE90A23F5E754F8043B0A9301294FF0D1
:100FD00000030B9305D19DF828300A9300230B934F
:100FE000B7E70229B5D1BDF82830F6E7042B09D1BF
:100FF000E31D23F0070303F10804D3E90023CDE93F
:101000000A23A6E7032B04BF54F8043B0A93A0E786
:101010009DF833007828ABD8622822D825283FF4E1
:101020008CAD5828A4D10DF126030093DDE90A0107
:1010300004AB0CAA05F043FC8246B8F1000F0DF199
:1010400026000CDB9DF83020A0EB0A036FF386121C
:1010500098458DF8302002D9A8EB03030D93804604
:101060003EE06338152883D801A252F820F000BF73
:10107000F110000055110000710F0000710F000009
:10108000710F0000710F000055110000710F00007A
:10109000710F0000710F0000710F0000AF11000010
:1010A0007D11000081110000710F0000710F000020
:1010B000C9100000710F00007D110000710F0000C9
:1010C000710F00007D110000B8F1000FDDF828A0BD
:1010D0000ADB4146504605F0FBFE0AEB00080026FD
:1010E000BAF1000F0CD143E7504605F0EAFEF4E7F1
:1010F0000A9B8DF8103000260DF1100A0DF1110831
:10110000A8EB0A0306B101339DF83220D00668D55A
:10111000023352060D9948BF0E9A0B4448BF9B18E4
:10112000B9F1000F76DD9DF83020A9EB0309C2F379
:101130008003039353076DD4500661D546B1029BDB
:10114000594630469847002857DB039B01351E4619
:10115000302356E01E070FD413F0100618BF2026C8
:10116000DDE90A23002BBFF65EAF524263EB430377
:10117000CDE90A232D2656E72B26F1E7002652E774
:101180000A9840B30DF1260300930CAA04AB00218A
:1011900005F095FBBDF8323003F0EF0343F4F04364
:1011A00043F010038246ADF83230002645E70A9B33
:1011B00007293FF6DDAEDFE801F00C04060C080855
:1011C0000C0C1D70D4E61D80D2E6EA17C3E900526C
:1011D000CEE61D60CCE6DFF8C8A006460AF1050899
:1011E0008EE7110748BF013393E71846039359462A
:1011F000029B98470028039B04DA11B0BDE8F08FEA
:1012000020234D444A46002AA5EB090109F1FF3984
:10121000EBDC0D4636B1029B594630469847002814
:10122000EBDB01359DF83230D90601D41A0706D51B
:10123000029B5946302098470028DEDB01359DF897
:101240003230DB0607D59DF83300029B594698479C
:101250000028D2DB01350D9E2E44731B002B16DCBB
:10126000029843465246594605F06FFB0028C4DBFE
:101270000544A944A9EB0503002B7FF779AE029B37
:101280005946202098470028B7DB0135F2E7029B3A
:101290005946302098470028AFDB0135DDE700BF15
:1012A000C580000008B54FF02002EFF3118382F3F0
:1012B0001288BFF36F8F01F041FD034805F030FA4B
:1012C00000F004FFFCE700BFCB80000002F0E0BEAE
:1012D0002DE9F047DFF85880044607464FF0010932
:1012E00014B93846BDE8F08794FAA4F5B5FA85F547
:1012F00009FA05F32E0108EB05156FEA030A24EA43
:1013000003042B7B002BEBD058F806301B694BB93C
:101310004644042273682846196807EA0A0700F061
:1013200043FADDE7284698470028D9D1F0E700BF07
:101330000C7D000030B51049104889B0002206F03D
:1013400046FB0F4D0F4900220023CDE90623002460
:101350000E23CDE90334CDE901440B4B00944FF447
:101360004072284603F0E0FE0849284606F08DF951
:10137000204609B030BD00BF91130000D005002009
:10138000080600208011002041160000F4800000B3
:10139000014804F021B800BFBC0100202DE9F84F3E
:1013A000254BBFF35B8F8146884653E8004F621C94
:1013B00043E800210029F8D1BFF35B8F1CB1002462
:1013C0002046BDE8F88F1D4D1D4E761B3611274671
:1013D0004FF0010AB74211DBB9F1000FF0D0002C39
:1013E000EDD02046FFF774FF0446B8F1000FF6D0A9
:1013F00000214FF4A47004F091FCF0E72B7B7BB14B
:10140000D5F800B0DBF80C300BB128469847DBF874
:10141000103043B96B6804221968284600F0C4F9FB
:1014200001371035D6E7284698470028F2D00AFA47
:1014300007F31C43F4E700BF880800200C7D000080
:101440001C7D0000014B53F820007047307D0000E8
:1014500010B5044C237813B9034803F0BDFF0123F2
:10146000237010BD54110020BC0100200C4BBFF3B1
:101470005B8F53E8002F013243E800210029F8D1A7
:10148000BFF35B8F58B1BFF35B8F064B53E8002F60
:10149000013A43E800210029F8D1BFF35B8F704780
:1014A00084080020800800200020064BBFF35B8FDB
:1014B000024653E8000F43E800210029F9D1BFF3A9
:1014C0005B8F704784080020F8B5FFF7EDFF0A4CEA
:1014D0000A4D2D1B07462D110026AE4200DBF8BD3C
:1014E00063685B792BB123685B6813B1394620468A
:1014F000984701361034F0E70C7D00001C7D000099
:101500000149024805F0ECBA3C7D00008C0800203F
:10151000084A08B500231370074A1360074B084AAE
:101520001A604FF4004000F073FBBDE80840FFF77D
:10153000E7BF00BF551100208408002004000020F0
:10154000936D0000014600220148002305F0E9BA2E
:101550008C080020014805F07DBB00BF8C080020EE
:101560000146014805F0C2BB8C080020014805F087
:10157000F1BB00BF8C080020F8B5194B187870B388
:10158000FFF7E8FF0546A8B1BFF35B8F154B53E8A3
:10159000002F013A43E800210029F8D1BFF35B8F07
:1015A000114C124E361B36110027B7420CDB284671
:1015B000FFF7D6FF0E4B1B68002B01DDFFF784FF02
:1015C000BDE8F840FFF7D2BF63685B7923B12368B9
:1015D00029461B682046984701371034E5E7F8BDD7
:1015E00054110020800800200C7D00001C7D0000AC
:1015F00084080020F8B50F4F3D787DB90E4C0F4E92
:1016000029460120FFF7CAFE361B3611B54206DB1C
:10161000FFF7B2FF0028FBD101233B70F8BD6368E0
:101620005B791BB1236820469B68984701351034CD
:10163000ECE700BF551100200C7D00001C7D000070
:1016400000212DE9F84F0846FFF7A8FE044680B3B5
:1016500040F267684FF0000904F07AFB1D4B1860F8
:1016600030B11D4B1B68092B02DD1C4803F0B4FE92
:101670001B4E1C4BDFF864B0F61A3611002744B13C
:101680002046FFF725FE044618B94FF0FF384FF00B
:10169000FF39FFF771FF054648B91FB1114F824668
:1016A000B2450BDB42464B46584603F0B5FE2F468B
:1016B000E5E74FF0FF384FF0FF39CDE73B689B6916
:1016C0001BB100221146384698470AF1010A10372B
:1016D000E6E700BFC408002080080020BC0100200D
:1016E0001C7D00000C7D0000214B13B51B680446D7
:1016F00098472146A0601F4805F08CFABFF35B8F26
:101700001D4B53E8002F511C43E800100028F8D16E
:10171000BFF35B8F194B1B787BB14FF02003EFF3C6
:10172000118483F31288BFF36F8FFFF725FF84F3D3
:101730001188BFF36F8F02B010BD114B1B68002BD7
:10174000F9D052B900220023CDE900230D484FF40F
:101750000042002304F032FDEDE70A2AEBD10948EC
:1017600006F041F9084802B0BDE8104003F034BE6D
:10177000040000208C080020800800205511002063
:10178000C4080020D0050020BC010020044A054BFD
:101790009B1AB1EBD30F34BF52F8310000207047D1
:1017A000AC7C00000C7D0000054A4368801A0011E3
:1017B00001300122187119605A71FFF749BE00BF4C
:1017C0000C7D00002DE9F04FC1F3CB45C1F3492654
:1017D0008DB081460C4690469A461735002E3BD078
:1017E000022309A84FF0040B07AF002231460093F3
:1017F000CDF808B0034601974046CDE909220B9287
:101800000596FEF711FFC0F30903581920F00700F1
:1018100080081E4663F352240493FFF793FE0546A7
:1018200078B1049B0A9310300022022309900B9296
:101830000093CDE9017B0C4A059909AB4046FEF7C0
:10184000F3FE66F3522453462246494628460DB01D
:10185000BDE8F04F05F0BBBA25F007008008FFF7A0
:1018600071FE0546EDE700BFA16D00000EB403B5A3
:1018700003AB014653F8042B0448019305F0CFFA5B
:1018800002B05DF804EB03B0704700BF476E000084
:101890002DE9F04F89B09A469DF848300493DDE970
:1018A00013830693159B0593049B169E04460F46CF
:1018B0009346002B00F0128106F00803079305F011
:1018C0006DFA06F002050246002800F0B180894951
:1018D0002046FFF7CBFF81464DB116F0440F40F094
:1018E000A98085493A462046FFF7C0FF814406F0AB
:1018F00001035BB1814B049A814953F82220814B4B
:101900002046002A08BF1A46FFF7B0FF06F008037A
:10191000002B00F0BB807C4B049A7C4953F82220BA
:101920002046FFF7A3FF0546BBF1000F05D078491D
:101930005A462046FFF79AFF0544BAF1000F05D03A
:10194000744952462046FFF791FF05444D44B8F1D3
:10195000000F00F0CB80704870494346224604F0E7
:101960007FFE059B002B4BD0DFF8B481059F102F25
:1019700028BF1027F30606D4B0064CBF69496A4950
:101980002046FFF773FF4FF0000A554500F38480AF
:10199000DFF898A1DFF898B14FF00009B94580F061
:1019A0008B80069B594613F809202046FFF75EFFFF
:1019B00009F10109B9F1100F75D15E49DFF878A17D
:1019C0002046FFF753FF4FF0000B5F4540F2818048
:1019D000069B13F80B20A2F120035F2B28BF2E22B9
:1019E00051462046FFF742FF0BF1010BBBF1100FF0
:1019F00067D1069B3B440693059BDB1B0593B5D142
:101A0000049B7BB1F10704D53E4A3D492046FFF7D0
:101A10002DFFF20606D4B3064CBF42494249204688
:101A2000FFF724FF204609B0BDE8F04F05F0FEB9EE
:101A3000814651E7414B186800283FF457AF404BAF
:101A40004FF47A7E1968B7FBF1F74FF46165B7FB85
:101A5000F0F100FB11770EFB07F7B1FBF5F205FB88
:101A600012153C21B7FBF0FCB5FBF1F300FB1C7732
:101A700001FB13510EFB07F70091B7FBF0F731495B
:101A8000CDE901C72046FFF7F1FE2FE706F0080574
:101A90004AE7049D2C485FE741462046FFF7E6FEF3
:101AA0000AF1010A71E719F0070F7FF477AF414699
:101AB0002046FFF7DBFE71E751462046FFF7D6FED2
:101AC00076E71BF0070F80D141462046FFF7CEFE98
:101AD0007BE741462046FFF7C9FE85E7B8F1000FD6
:101AE000D7D1059B002B9DD0049D3DE7059B002B86
:101AF00088D039E70581000009810000507D000091
:101B00002E81000000810000647D00003181000012
:101B1000378100003B810000476E00001F6E00000F
:101B20004B8100004181000040810000498100009C
:101B3000438100004D8100004F810000C808002053
:101B4000CC080020128100007D6E00002DE9F041DC
:101B50004B680F888E6886B005460C469046C7F3E2
:101B600082175BB113495B1A43F3CF0100291FDBD6
:101B70002078C0F3C200FFF709FE034621466088C3
:101B800051F8102B0097C2F34922002A01EB0204FE
:101B9000C0F3CB0008BF0021CDE90308CDE9011453
:101BA000002231462846FFF773FE06B0BDE8F081FB
:101BB0000023E3E7AC7C000073B542F20F738B4265
:101BC00028BF0B4605680F4A04460521684604F005
:101BD000B4FD63680C495B6806460B22284605F095
:101BE00011F963683246694628465B6805F00AF9D0
:101BF000636806495B681B22284605F003F902B0BA
:101C000070BD00BF2E8800008E8100007281000030
:101C1000084A10B50123084C13600021A04204D8E3
:101C200001B11360054B186010BD40085B00012135
:101C3000F4E700BFCC08002040420F00C808002095
:101C4000F8B5074F0D4604464618B44201D1284660
:101C5000F8BD386814F8011B83685B689847F4E79F
:101C6000E8080020014B002019607047D8080020C8
:101C7000014B024A1A607047E8080020F47A00001D
:101C8000024B034801221A7005F0D0B8561100200B
:101C9000947D00000148FFF78FBF00BF947D0000D6
:101CA000064B10B518680C46FFF7CCFB21460346DF
:101CB000BDE8104002480F22184700BFD808002096
:101CC000947D00002DE9F84305464FF02003EFF323
:101CD000118683F31288BFF36F8F0E4B1C689CB183
:101CE0000D4FDFF838804FF00C09D4E90132002D98
:101CF00008BF13462BB198F8142009FB02F2B85C18
:101D000098472468002CF0D186F31188BFF36F8FB9
:101D1000BDE8F883EC080020000900203C0F0020FB
:101D200038B51A4B1C7DBFF35B8F04F01F030122F3
:101D30009A40174B6109D04303EB810353E8001F1E
:101D400001EA000543E8005CBCF1000FF6D1BFF3E7
:101D50005B8F114213D00F4B0F4D8BB10C2363439C
:101D6000EA18E85C517805F0DFF80020FFF7AAFFD9
:101D70000C235C432A1900232B51C2E9013338BDDF
:101D800083F31188BFF36F8FEFE700BF3C0F002094
:101D90000C090020296F0000000900202DE9F04106
:101DA000334B07461D7D4FF02003EFF3118883F37B
:101DB0001288BFF36F8F0C242E4B2F4E6C431A19D1
:101DC000195D002949D007CA06EB040C8CE807000E
:101DD00000221A5588F31188BFF36F8F0C236B43D1
:101DE000F218F05CB8B37B1C0FD0D2F808C02348BF
:101DF000234A4FF4004400210023ECFB0401FEF7CA
:101E00007FF90121381A05F0BEFD03F007FD01201E
:101E1000FFF758FFBFF35B8F05F01F0201219140D0
:101E2000184A6B0902EB830353E8002F0A4343E887
:101E300000200028F8D1BFF35B8F134B33B10C2087
:101E400068433318305C597805F062F8FFF768FF93
:101E500003F0B4FE0120BDE8F0810146284600F001
:101E600015F80028B6D007C8344484E80700B1E765
:101E70003C0F0020F4080020000900203F420F0022
:101E800040420F000C090020116F00002DE9F04FB7
:101E900085B00E4603A900F041F8039B01931C4B4B
:101EA000DFF87080D3F800A0441E24B24FF400473E
:101EB0004FF0000B631C04D10025284605B0BDE897
:101EC000F08F019B144A04EB440503EB8505C446DF
:101ED00068685946E0FB07C100236046FEF710F929
:101EE0008146A8680C4AC4465946E0FB07C1002356
:101EF0006046FEF705F9BAF1FF3F01D0824504D9EB
:101F0000721CDAD04844B042D7D9013C24B2D1E7A0
:101F1000080000203F420F0040420F0008B9024B6A
:101F20000B600020704700BFA47D0000014804F052
:101F300005BA00BFA47D000010B5044618B90D4BCA
:101F40000D485B689847616808290DD031F004039B
:101F50000AD011F0020108D00848214605F066FBBE
:101F6000002323600023636010BD2068142204F066
:101F7000C3FFF7E7F4000020B7810000100900203C
:101F800008B508B34368042B10D101220368BFF3DE
:101F90005B8F53E8001F002903D143E8002000288D
:101FA000F7D1BFF35B8F0BD1002008BD53B10068A0
:101FB0004FF0FF324FF0FF3303F05AF90028F3D00F
:101FC0000348F2E70348F0E76FF4E040EDE700BFB5
:101FD000E98FFFFFEA8FFFFF08B5D0B14368042BFC
:101FE00011D100220368BFF35B8F53E8001F012962
:101FF00003D143E800200028F7D1BFF35B8F0748E7
:1020000008BF104608BD3BB1006803F0A9F90020E5
:10201000F8E76FF4E040F5E70148F3E7E98FFFFFE9
:10202000EA8FFFFF10B5044618B9164B16485B68D7
:1020300098476368042B23D0082B21D0CBB92368A1
:10204000BBB912484FF0FF324FF0FF33214603F087
:102050000BF808B923681BB90A4B0D485B68984711
:1020600020681422002104F047FF636843F0020354
:102070006360206805F01FFB636843F00103636041
:1020800010BD00BFF4000020B7810000100900203F
:10209000DD81000008B5064906484023142205F0FA
:1020A000AAFABDE808400449044804F0A7B900BFF3
:1020B0002C09002010090020BC7D0000AC7D000030
:1020C000014910220A60704710ED00E072B64040EE
:1020D00080F31188BFF36F8FBFF34F8F30BF62B6AD
:1020E000BFF36F8F704700BF72B6494081F311880C
:1020F00020BF80F3118862B6704700BF2DE9F0471A
:10210000814600AF0C4600294CD06E468AB0D1E91A
:102110000012A3686D462748A8464FF0050AC5E996
:102120000501C5E9072348F810AF234842460023BC
:102130004FF42151FFF746FBB546D4E9031263691A
:10214000AD461E48C5F810A0C5E90501C5E907233D
:102150001948002342464FF42151FFF733FBB5469F
:1021600088B0E3696D46164AA8464FF0030AC5E9F0
:10217000052348F810AF1048002342464FF4C251DF
:10218000FFF720FBB546A369AD460E4AC5F810A07F
:10219000C5E905230848002342464FF4C251FFF722
:1021A00011FBB5462146484602F0F4FDBD46BDE8A8
:1021B000F08700BF0A820000EC7C0000398200003A
:1021C000688200007782000043B2002B08DB012206
:1021D00000F01F0002FA00F05B09024A42F82300F7
:1021E000704700BF00E100E0054B420900F01F000E
:1021F00053F82220012303FA00F01040704700BF7B
:1022000000E100E043B2002BA8BF03F1604301F1FD
:102210000101B8BF064B4FEA4111ACBF03F5614362
:1022200000F00F00C9B2B4BF195483F8001370470F
:1022300014ED00E030BFFFF7FDBF00BF0B4A08B54B
:102240000B4B22F07F029A60BFF34F8FBFF36F8F6B
:10225000D3F8882022F47002C3F8882002F032FEFE
:1022600003F0EEFD00F0BCFB02F070FE0000000089
:1022700000ED00E0094A0A4993680968996709492D
:1022800058674B6843F080534B60002383F31188F9
:10229000BFF36F8F9368986F704700BF3C0F0020AB
:1022A000487F000000ED00E012498A684FF03000DE
:1022B0001044EFF3098C80E8F01F202080F312888F
:1022C000BFF36F8F0C4F4FF00066CA698A603E60A3
:1022D000506F0023536780F3118804B5104600F057
:1022E0001BFCBDE8044002F1300090E8F01F8CF3C5
:1022F000098870473C0F002004ED00E01EF0040F39
:102300000CBFEFF30880EFF30980816911F8021C1C
:102310000229FFD001B504F0C2FD01BD42F8203C06
:10232000009B42F81C3C0A49019B42F8183C029B66
:1023300042F8143C21F001014FF0807342F8043C54
:1023400042F8081C0023203A02654367704700BF2B
:10235000AB680000094A0346906870B113F1160F8C
:10236000406E05D0A0F140029A4205D8834203D2C4
:10237000814228BF00207047002070473C0F00209A
:1023800008B5094B98600D46144600F0C5FB204681
:1023900085F30988002163B681F31188BFF36F8F3D
:1023A0000022002304F081FA3C0F002001B572B630
:1023B0000B4A906900281EBF0021916105F06CF95D
:1023C00062B6EFF30580A0F110004FEAC0000549A6
:1023D000014409C99847BDE8014003490847000086
:1023E0003C0F00200C7B0000ED230000044B99689B
:1023F000D869884203D003494FF080520A60704781
:102400003C0F002004ED00E02DE9F04186B00646C7
:1024100000AF0D463E4B3F487B614FF48251022492
:1024200007F110023C6104F049FD3B4B9B6AD90463
:1024300009D53A4B374807F110024FF48251C7E9EA
:10244000044304F03BFD344B9B6A1A050AD5344B18
:102450007B613048022307F110024FF482513B6147
:1024600004F02CFD2C4CA36A9B0522D5E8462D4B8D
:1024700028487B6107F1100202234FF482513B612F
:1024800004F01CFDA36BA26A100412D588B06A4642
:1024900025492048C2E90513032342F8103F4FF4B1
:1024A000C25104F00BFDC5461EB1A36A23F40043DC
:1024B000A362194B9B6A59050AD51C4B7B611548D1
:1024C000022307F110024FF482513B6104F0F6FC45
:1024D000114B9A6AD20515D5154B7B610D48022325
:1024E00007F110024FF482513B6104F0E7FC0A4A05
:1024F000936A002043F47F43183793622870BD46E7
:10250000BDE8F0819B6A9B04F1D50A4BE5E700BF6B
:10251000A5820000EC7C000000ED00E0BB82000022
:10252000CC820000DF820000F88200000D830000F2
:10253000288300004083000010B586B0334B344838
:102540000593022404AA4FF48251049404F0B6FCCB
:10255000304B9B6A9B0108D52F4B2D4804AA4FF4A2
:102560008251CDE9044304F0A9FC2A4B9B6ADC01AB
:1025700009D52A4B05932648022304AA4FF4825119
:10258000049304F09BFC234B9B6A180309D5244B4E
:1025900005931F48022304AA4FF48251049304F0C8
:1025A0008DFC1C4B9B6A590309D51E4B059318489B
:1025B000022304AA4FF48251049304F07FFC154BCC
:1025C0009B6A9A0309D5184B05931148022304AA64
:1025D0004FF48251049304F071FC0E4B9B6ADB03B1
:1025E00009D5124B05930A48022304AA4FF48251DD
:1025F000049304F063FC074A936A6FEA03436FEAAB
:1026000013430020936206B010BD00BF6F8300002B
:10261000EC7C000000ED00E0878300009A8300005E
:10262000B4830000D2830000F7830000118400000F
:102630002DE9F04786B0064600AF884614464F4B5A
:102640004F487B61022507F110024FF482513D6132
:1026500004F034FC4B4B9B6AD80609D54A4B4848DA
:1026600007F110024FF48251C7E9045304F026FC2D
:10267000444B9B6A19070AD5444B7B6140480223AF
:1026800007F110024FF482513B6104F017FCDFF8B0
:10269000F4A0DAF828309A0739D46FF01505394BD1
:1026A0009B6AD8070AD53A4B7B613548022307F16C
:1026B00010024FF482513B6104F000FC314B9B6AE5
:1026C00099060AD5334B7B612D48022307F110028E
:1026D0004FF482513B6104F0F1FB2A4B9A6AD20617
:1026E0003FD49A6A90073CD40020264B9A6A9206FF
:1026F00042BF5A6A22F400525A629A6A42F0FF02BA
:102700009A62183700232370BD46BDE8F087E9467A
:10271000214B7B611A48022307F110024FF48251CA
:102720003B6104F0CBFBDAF83450DAF828301B06B2
:10273000B3D588B06A46194B1148C2E90535032361
:1027400042F8103F4FF4C25104F0B8FBCD46B8F147
:10275000000FA4D0DAF8283023F08003CAF828301C
:102760009DE75B681905BFD531462846FFF7F2FDA6
:102770000028B9D080F309880220B6E73C84000025
:10278000EC7C000000ED00E052840000CC820000F0
:10279000B384000040830000858400009D84000015
:1027A0002DE9F04F784B8BB0D3F8048000AF0D4685
:1027B000C8F30804002686F31188BFF36F8F02F078
:1027C0007F43B3F17F4F0ED102F00C03082B0CD1E5
:1027D0006E4BFB616E48022307F118024FF48251E1
:1027E000BB6104F06BFB354603E0120701D40546DC
:1027F00001260023FB71E31E092B00F2A580DFE810
:1028000003F005989B95A3A3A3A3A39EE946DFF835
:102810007881604B5E48FB614FF0020A07F11802B5
:102820004FF48251C7F818A004F048FBD8F82C40A8
:102830004FF0000B14EA0A0487F807B00BD0564B90
:10284000C7E906A3524807F118024FF4825104F079
:1028500035FB00240DE0D8F82C30002B25DA4F4B47
:102860004B4807F118024FF48251C7E906A304F060
:1028700025FBFB79ABB92022294607F1080004F0BB
:1028800030FB7B6A002E7AD0C3F3080222B96FEACC
:1028900053236FEA43237B6207F108012046FFF7C9
:1028A0002DFC2C37BD46BDE8F08FD8F82C305B00EE
:1028B000DFD53B4B364807F118024FF48251C7E988
:1028C00006A304F0FBFAAB6933F8022C4DF6027351
:1028D0009A420AD0D8F82830DBB2BBB1FA1D0121E8
:1028E0002846FFF7A5FE0446C3E788B02B686A4672
:1028F0002C492748C2E90513032342F8103F4FF43F
:10290000C25104F0DBFACD462C68B2E7D8F8283083
:1029100013F47F4F04D0F91D0120FFF775FDE2E7A6
:10292000D8F828301B0C1B04002BA2D0FFF704FEA4
:10293000D9E7FA1D0021D3E7F91D0020EDE71A4B76
:10294000FB610223BB617DE7184A194B18F4F87F3D
:10295000E8468AB018BF13466A4616490C48C2E9D1
:102960000513022382F82030103C134BD4614FF43E
:10297000095142F8103F04F0A1FAC54669E723F473
:10298000FF7323F0010386E700ED00E000850000FF
:10299000EC7C00002B850000428500006385000070
:1029A0007185000090850000AC850000E784000080
:1029B000D2840000D085000004000001024A53695F
:1029C00043F010035361704700ED00E0EFF308801F
:1029D000EFF3098101B57246FFF7E2FE01BD00BFCA
:1029E000044800232021C2180133302B82F8001341
:1029F000F9D1704700E100E0002080F31488BFF3B4
:102A00006F8FFEF763FC00200D490860BFF34F8F06
:102A10000C4880F3088800F02BF8202080F3118800
:102A200009484FF40461401880F30988EFF31480DB
:102A30000221084380F31488BFF36F8FFFF7FEFB7A
:102A400094ED00E0C0180020801A00200749D1F85A
:102A500090200023C2F307221846934200D170470A
:102A6000C1F89830C1F8A0000133F6E700ED00E0AE
:102A700008B572B6002383F31388FFF7E7FF144B02
:102A80004FF0FF32C3F88020C3F88420C3F88820B9
:102A9000C3F88C20C3F89020C3F89420C3F8982082
:102AA000C3F89C20C3F88021C3F88421C3F888218F
:102AB000C3F88C21C3F89021C3F89421C3F898215E
:102AC000C3F89C2162B6BFF34F8FBFF36F8F08BD71
:102AD00000E100E0084B9B6883420BD1EFF30583D4
:102AE00043B1064B5A6842F080525A605A6A22F447
:102AF00000425A6203F032B93C0F002000ED00E0C2
:102B0000024B034A0348012100F090B80000042062
:102B100000000020D07D0000426E054B403A1A6054
:102B2000044A4021C3E901121846012100F088B887
:102B30002C0E002000000B15F8B5DFF8B4C000AF74
:102B400000258D421ADA4468002C4DD0FBB104F107
:102B5000FF3E14EA0E0F14D06C4688B06A46254B2F
:102B6000C2E90535032342F8103F234800234FF400
:102B7000C251FEF727FE6FF01502A5461046BD466E
:102B8000F8BD1F2CE8D906681EEA060FE4D1202CF8
:102B90000668D0F808E0D2B214D9B4F1004F13D8C7
:102BA000013CB4FA84F4C4F11F046400072A4EEA1D
:102BB00004040BD96C4688B06B461049C3E9051272
:102BC0001A46CFE70824F1E73E24EFE726F01F0678
:102BD000164346F0100644F00104CCF89820CCF8D7
:102BE0009C600132CCF8A04001350C30A9E700BF51
:102BF00000ED00E0E7850000DC7C00000A860000B4
:102C0000044B0522C3F89420BFF34F8FBFF36F8F9F
:102C1000704700BF00ED00E0BFF35F8F024B002262
:102C2000C3F89420704700BF00ED00E010B5034CDE
:102C300001232278FFF780FF207010BD581100207B
:102C400008B5094A00231278FFF776FF10F1160F36
:102C500003D0064B0022072800DD08BDC3F898000A
:102C6000C3F8A0200130F6E75811002000ED00E085
:102C700014490868082810B521D8FFF7CDFF124C79
:102C800049680022904201F10C0105D10F4B1870E8
:102C9000FFF7B6FF002010BDC4F8982051F80C3C97
:102CA00023F01F03134343F01003C4F89C3051F882
:102CB000043C43F00103C4F8A0300132E2E74FF0D6
:102CC000FF30E8E7DC7D000000ED00E05811002057
:102CD000014B1860704700BF2C00002010B54FF06A
:102CE0002003EFF3118083F31288BFF36F8F114A33
:102CF0000123C2F840354FF080424FF08051C2F8B6
:102D00007835D1F83041082C08D1D1F83411052993
:102D100004D8094C615C09B1C2F838364FF08043E1
:102D20000122C3F8802580F31188BFF36F8F002044
:102D300010BD00BF00E00140438600004FF080431B
:102D4000C0B2C3F81C05BFF34F8F0549054BCA68D5
:102D500002F4E0621343CB60BFF34F8F00BFFDE787
:102D600000ED00E00400FA0520B1034B800143F0C0
:102D700001031847704700BF207D0000084B70B565
:102D8000C31A0D4607499B10044659430648402282
:102D900004F0ECF82B4601462046BDE87040184789
:102DA000480E0020B76DDBB6947A000073B50C4C6A
:102DB0000C4A4023041B00930D460B460A49A410FD
:102DC00061430646094804F0FEF8011E05DA304664
:102DD0002B4602B0BDE87040184702B070BD00BF7E
:102DE000480E002035700000B76DDBB6947A000005
:102DF000002270B5012104461046FFF703FA0F4880
:102E000001F0CCFA0E4B984215D104F013FB266961
:102E10000C49304603F0EDFC00280BDB246909491E
:102E20000125356404F11C0003F0E3FC002801DBFC
:102E3000E564002070BD6FF00400FBE77D2E00000C
:102E40000000AD0B307E000001460C2309484B43C7
:102E500070B5C418D4E90E5600224033A26318445A
:102E600004F071F82DB132462B460348BDE870409E
:102E7000184770BD480E0020947A000010B1012858
:102E800004D07047034B1B6C5B0701D1FFF7DCBF1D
:102E9000704700BF480E002008B54FF02003EFF345
:102EA000118183F31288BFF36F8F124A136843F0C6
:102EB000020013F0010310600CD04FF08042D2F8F2
:102EC0000C34D2F80C2413F0010303D00A4804F0A8
:102ED0003AF8012381F31188BFF36F8F23B1BDE866
:102EE00008400020FFF7B0BFBDE80840012004F013
:102EF000AEBA00BF980E0020880E00201FB5002239
:102F00000123CDE90223094ACDF800D06B46CDF864
:102F100004D004F088F8002805DB4FF48042002339
:102F2000684602F079FA05B05DF804FB53700000C2
:102F3000094BBFF35B8F53E8002F22F0020143E8F7
:102F400000100028F7D1BFF35B8FD30702D4012014
:102F500004F0BABA704700BF980E00202DE9F04186
:102F60003949BFF35B8F0746012251E8003F41E832
:102F700000200028F9D1BFF35B8F33B933493448BF
:102F80004B60CB608A6003F047FC7B1E012B2FD87F
:102F9000012F07D14FF08043D3F81C3403F0030313
:102FA000012B25D004F06BFB044618B9294B1B7884
:102FB000002B41D14FF02003EFF3118683F31288E9
:102FC000BFF36F8F0124DFF890804FF08045D5F874
:102FD0001834D5F81824D2030CD503F00303012BC1
:102FE00001D0012F06D10CB386F31188BFF36F8F88
:102FF000BDE8F081ACB13046FFF776F8D5F818356A
:10300000002BE4D1D5F80421002AE0D0C5F8043122
:10301000D5F804310123C5F81835C8F88031AB6004
:10302000D5E70021212002F079FEE7E74FF0804349
:103030000222C3F80423DBE74FF080430222C3F8E7
:1030400008230646BFE700BF9C0E0020380E002074
:10305000640E00205E11002000E100E008B5084B7E
:103060000848186004F0B9FA38B10748FFF730FE95
:103070000548FDF747FC002008BD6FF01200FBE794
:10308000A00E0020F47A00008D3000000A2838B528
:10309000074D044604D1286883680D215B68984772
:1030A00028688368E1B25B689847204638BD00BF56
:1030B000A00E002030B54068047B01F01F05B2F57A
:1030C000001F45EA441585B04FF0000405D128469D
:1030D00001F0E6FB002005B030BDB2F5800FCDE970
:1030E000024434D1B3F1007F0CBF042305238DF8D3
:1030F0000830836823FA01F1C9071AD4B2F1A07F1E
:1031000017D16A09012A05F01F031C4A03F5E07371
:1031100018BF4FF0A04252F82330DB0709D40DF15D
:1031200007042146284601F01FFB154B984219D091
:1031300003940023194602AA284601F0EFF9114B27
:10314000984218D10121284601F062FBC2E7B3F191
:10315000C06F05D0B3F1007F0CBF02230123C6E787
:103160000323C4E7204601F04DFB064B9842DFD015
:103170006FF00B00AFE76FF01500ACE700030050F5
:103180000400AD0B0000AD0B10B501F02BFB0446A5
:1031900068B901F0FFFA084B98420AD10748214666
:1031A00001F0DCFA224605210620FFF72BF800206B
:1031B00010BD6FF00400FBE70000AD0BC131000053
:1031C000420970B5034602D0012A15D070BD0B4EDE
:1031D000326951680029F9D003F01F0301250C68FA
:1031E0009D408A682A4002D04B6830469847002CA0
:1031F000ECD021462468F4E7014EE9E7AC7A000000
:10320000C47A00002DE9F043D0F8048098F80C301F
:1032100001F01F0685B046EA43160F4630460DF111
:103220000301144601F0A0FA14F4403581460BD195
:10323000304601F05DFB434B994503D19DF80300F7
:1032400001F0DAFA002057E00023194602AA3046BE
:10325000CDE9023301F062F93A4B984202D06FF0A7
:10326000150049E0814503D19DF8030001F0C4FA3F
:10327000A50354D540F206332340B3F5837F3ED0F7
:103280000CD8062B15D004D89BB1022BE7D1042310
:103290000FE0B3F5807FE2D101230AE040F2022281
:1032A00093422ED0B3F5407F2DD0B3F5007FD6D119
:1032B00002238DF8043084F48033C3F30043E00626
:1032C0008DF8053054BFC4F34013032321038DF858
:1032D00006301AD5D8F80430012101FA07F7C3F8EF
:1032E0000875002201A9304601F0C6F9154B984235
:1032F00014BF6FF01500002005B0BDE8F083072370
:10330000D7E70523D5E70323D3E7620341BFD8F806
:103310000430012101FA07F7C3F80C75E1E7E30671
:103320004FF0000354BFC4F3401403241A4601A90C
:1033300030468DF8044001F0F1F8024B984281D0FC
:103340008DE700BF0000AD0BF0B54B79012B26D007
:10335000032B21D110268B79032B1DD1CC790CB1F5
:10336000012C19D10A7912B1022A15D10E220B684B
:103370004568B3F5164F2D6865D02DD8B3F5165FA7
:1033800064D016D8B3F5966F62D00AD8B3F5967F9D
:1033900061D0B3F5167F61D06FF0850052E0002652
:1033A000D9E7B3F5166F5CD0B3F5965FF4D1374B20
:1033B0003CE0B3F5E14F57D007D8B3F5615F55D086
:1033C000B3F5964FE8D1324B30E047F61227BB42B7
:1033D000E2D14FF4000329E0B3F5613F48D013D8A0
:1033E000B3F5963F47D009D84DF6C027BB4244D02D
:1033F000B3F5614FD0D14FF46B0317E0B3F5E13F64
:10340000CAD14FF0EB7311E0B3F5612F38D008D873
:10341000204FBB4237D0B3F5E12FBDD14FF0E86369
:1034200004E01D4FBB42B7D14FF080530069C5F88F
:103430002435031D03C934432243C5F86C2583E8B2
:1034400003000020F0BD4FF41D03EFE7134BEDE741
:103450004FF49E23EAE74FF4A033E7E74FF41C3321
:10346000E4E74FF41D23E1E70D4BDFE70D4BDDE70C
:103470004FF06C73DAE70C4BD8E74FF46503D5E7F0
:103480004FF07063D2E74FF08063CFE700B01300D6
:1034900000A04E0090D0030040420F0000502700D3
:1034A00000C0750000F03A0000903A012DE9F043A9
:1034B000D0F804800669D8F80040D8F80C9087B09E
:1034C0000021C4F80015074630606A46484603F0FC
:1034D000A8FE051E26DB009BD9F800201979186884
:1034E00003F0BCFE051E1DDB311D3846FFF72CFF27
:1034F0000546B8B9D8F8043099072AD506F118005E
:1035000001F0F0FA274B984210D0274B0593022385
:10351000049326482B4604AA4FF482516FF0040509
:10352000FEF750F9284607B0BDE8F083307EC300AF
:1035300003F1804303F5F83304F10C0204F59071B4
:10354000C3F81015C3F81425194A01238340C2F8A3
:1035500004350823C4F8003598F8083053B9C4F886
:103560001031D4F810317369C4F834350123C4F82C
:1035700038352360D8F804309A075CBF4FF4807266
:10358000C4F80423DB0644BF4FF48003C4F80433BB
:103590003369C4F844350023C4F848350123A360D7
:1035A000E360BFE70000AD0B8E860000047D0000E5
:1035B00000F00140F8B5076904460D4604F05FF8D5
:1035C00010B92D4B1B788BB94FF02003EFF3118608
:1035D00083F31288BFF36F8F6068314603F0B5FD47
:1035E00030BB86F31188BFF36F8FEDE76426606808
:1035F00003F0ABFD70B9012003F01AFF013EF6D1D4
:103600000021212002F08AFBF0E786F31188BFF346
:103610006F8FF5E74FF02003EFF3118683F31288E5
:10362000BFF36F8F6068314603F08FFD0028ECD048
:103630003B691D70626838691368C3F8440501204E
:10364000C3F848050020C3F82001D3F82041C3F88F
:1036500058015268D3F85801D20641BF0822C3F876
:1036600000254FF48002C3F8042301229A6081F3FD
:103670001188BFF36F8FF8BD5E11002010B50123D4
:103680008340114ABFF35B8FDC4352E8001F01EA1D
:10369000040C42E800CEBEF1000FF6D1BFF35B8F01
:1036A0004FF4803202FA00F002F1804202F58052BB
:1036B000C2F80803BFF35F8FBFF36F8F0B4214BFD5
:1036C0000120002010BD00BFC00E00201949F8B530
:1036D000044622F07F450868C1E90023A5F50013E0
:1036E000101AB3F5400F22D2134B1B681A0A1B069F
:1036F0005E19124B42F10007C3E90067012602F090
:103700007DFCA30003F1804303F58833D3F8402503
:10371000AA420BD11EB94FF40002C3F84025084B52
:103720004FF4803000FA04F4C3F84443F8BD002697
:10373000E5E700BFA0060020C40E00208806002098
:103740000010014019B3BFF35B8F0123104A83407F
:1037500052E8001F194342E8001CBCF1000FF7D1EA
:10376000BFF35B8F0B4A4FF480338340C2F80433BE
:10377000094BBFF35B8F1B68BFF35B8F23FA00F02D
:10378000C30742BF054B4FF40032C3F80021704716
:10379000C00E002000100140BC0E002000E100E03F
:1037A0000D4B1868010A0006BFF35F8F0B4BD3F86F
:1037B0000435181841F10001B3F5801F0AD2084BF7
:1037C000D3E90023904271EB030303D210F1807020
:1037D00041F10001704700BFC40E002000100140FD
:1037E000880600202DE9F04F85B01646984605461C
:1037F000FFF744FF0090FFF7D3FFB04271EB0803DF
:1038000078D2464B301A68EB0101984271F10003FF
:1038100080F08180424B03EB0513D3E902ABD8451E
:1038200008BF564551D04FEA850909F1804905F195
:10383000500709F58839BF004FF4803101FA05F3CC
:10384000BFB226F07F4207F180470193D9F84005C7
:10385000344B07F588371446D3F80415401A20F086
:103860007F4021F07F4C0128C9F840C507D1CDE940
:103870000221132004F0A7F8DDE90221294B01F110
:10388000020CA4EB0C0020F07F40B0F5000F88BFC5
:1038900064460020386038680198C3F8440324F077
:1038A0007F40C9F84005D3F80405814206D0201AAC
:1038B000023820F07F40B0F5000F19D8A41A24F088
:1038C0007F4414EB060A48F1000B15490E982B01B2
:1038D00001EB0512C2E902ABC8500F9B53600024F4
:1038E00028460099FFF72EFF204605B0BDE8F08F6F
:1038F0002046B1E701230C4ABFF35B8FAB4052E88F
:10390000001F194342E800100028F8D1BFF35B8F75
:10391000B246C346D9E76FF01504E1E701000001A4
:103920009006002000100140BC0E002073B5194B1A
:10393000194D00244FF0FF304FF0FF31C5F8084516
:10394000C3E902014FF48033C5F80433134B022658
:103950004FF400320121C5F804631120C3F880211F
:103960002246FEF74FFC1120FEF72EFC0C4A0123E5
:10397000AB602B6013600B4B0B4A00930194002348
:103980002046FFF72FFF3046FFF7E8FA204602B047
:1039900070BD00BF900600200010014000E100E073
:1039A000C00E0020CD360000FFFF7F002DE9F74359
:1039B000354CD4F804339A070BD5D4F8043143B10D
:1039C000324A0023C4F80431D4F8043113680133B7
:1039D00013604FF02003EFF3118283F31288BFF3DB
:1039E0006F8FD4F80433DB0312D5BFF35B8F284B02
:1039F00053E8001F21F0010043E80006002EF7D134
:103A0000BFF35B8F002936D1D4F84031002B32D17F
:103A1000002382F31188BFF36F8F4BB3FFF7C0FE13
:103A20004FF02003EFF3118C83F31288BFF36F8FF5
:103A3000184BD3E90267B04271EB07024FF0000266
:103A400020D34FF0FF384FF0FF39D3E90015C3E919
:103A500002891A604FF48033C4F848338CF311881C
:103A6000BFF36F8F21B1009532463B460020884757
:103A700003B0BDE8F0830023C4F84031D4F84031EE
:103A80000123C6E71146E9E700100140C40E0020FB
:103A9000BC0E002090060020431C13B521D0012845
:103AA00021DDB0F5000F20DA441EFFF779FE104B40
:103AB000D3E90013401AB0F5000F28BF00240130ED
:103AC00002190C48824228BF024652184FF00000EB
:103AD00009490190009143F10003FFF783FE02B012
:103AE00010BD0448E0E70024DFE7024CDDE700BF3B
:103AF000A0060020FFFF7F00CD36000008B5FFF7CD
:103B00004FFE024B1B68C01A08BD00BFA006002074
:103B100000F01F0140090128044B4FF0010218BFBB
:103B20004FF0A0438A40C3F80C25704700030050B3
:103B300030B500F48054002C08BF15464FEA03232B
:103B4000C0F381121CBF0125002100F01F0410F0FA
:103B5000200F43EA8202064842EA010208BF4FF002
:103B6000A04004F5E07442EA450240F8242030BD4C
:103B70000003005000F01F0140090128044B4FF0E2
:103B8000010218BF4FF0A0438A40C3F808257047D0
:103B9000000300507FB5074B05930748022304AA92
:103BA0004FF48251049303F02BFC002007B05DF822
:103BB00004FB00BFD9860000BC7C00002DE9F74360
:103BC0000024144E25464FF0010830683779D0F8AC
:103BD0001090836801A95B689847002813D1D9F831
:103BE0000020019B08FA07F753403B4202D008FA35
:103BF00005F31C430135042D06F10806E5D12046E6
:103C000003B0BDE8F083F2DA03B0BDE8F043FFF79C
:103C1000C1BF00BFF47E00002DE9F041154E86B013
:103C200007468846002527FA05F212F0010217D14F
:103C300028FA05F3DB0715D53179306803F0D0FB9E
:103C4000044678B10C4B05930C48022304AA4FF4A8
:103C50008251049303F0D4FB204606B0BDE8F08106
:103C60000122E9E70135042D06F10806DBD1002425
:103C7000F2E700BF147F0000EE860000BC7C00006D
:103C800000282DE9F84314BF4FF098654FF4001554
:103C9000114C002605F400074FF001082068217937
:103CA000D0F808C0B7B10269126808FA01F31342EC
:103CB00010D085F0C06202F0C063DCF8189002F406
:103CC000C0020136C847042E02D008340028E5D0CF
:103CD000BDE8F8832A46EEE7F47E000010B586B012
:103CE0004FF02003EFF3118483F31288BFF36F8F3B
:103CF0000020FFF7C5FF48B10C4B05930C48022389
:103D000004AA4FF48251049303F07AFB094B1A780A
:103D100032B901221A7008482122002301F020FD47
:103D200084F31188BFF36F8F06B010BD04870000C5
:103D3000BC7C00005D110020A8060020F0B587B013
:103D4000FFF73CFFBFF35B8F2C4B044653E8002F7B
:103D500043E800410029F9D1BFF35B8F284B294F7D
:103D60001A783ABB3E68A64219D0274B1B686640BA
:103D70000BB1314698474FF0FF3324484FF0FF32E4
:103D800001F076FA224B1D6835B1043D31462B68AF
:103D9000204698476D68F7E71C4801F0E1FA3C605F
:103DA0005CB11C484FF4A472002307B0BDE8F0409A
:103DB00001F0D6BC00221A70F1E74FF02003EFF3B8
:103DC000118583F31288BFF36F8F134B1878012886
:103DD00003D11C70FFF754FF044685F31188BFF32D
:103DE0006F8F4CB10D4B05930D48022304AA4FF47D
:103DF0008251049303F004FB07B0F0BDFC0E0020D9
:103E000054010020F40E0020C80E0020CC0E00202B
:103E1000E00E0020A80600205D1100201D87000094
:103E2000BC7C000070B5114E86B000254FF4003107
:103E3000304603F0BFFA044650B90135042D06F1AF
:103E40000806F3D10F2106B0BDE87040FFF7E4BECD
:103E5000074B05930748022304AA4FF482510493A9
:103E600003F0CEFA204606B070BD00BF147F0000FC
:103E700035870000BC7C0000074BBFF35B8F1B68DD
:103E8000BFF35B8F00B10360044811B102685A4070
:103E90000A600360704700BFFC0E0020F80E00208F
:103EA0002DE9F0433C4B87B018603C483C4D03F093
:103EB00002FC2E460027A846F38813F0010F14BF1A
:103EC0001021202141F48031304603F073FA04467A
:103ED00068B1344B05933448022304AA4FF482514D
:103EE000049303F08DFA204607B0BDE8F083013754
:103EF000042F06F10806DFD1064607464FF00109F8
:103F00002868297983684FF400129C690023A04730
:103F1000044608B1254BDDE72B79013709FA03F395
:103F2000042F46EA030605F10805E9D1204F214B8D
:103F3000C7E90136054658F835008368DB6933B1B7
:103F4000012239469847044620B11B4BC2E76FF067
:103F50008504FAE70135042DEDD11849184803F01E
:103F6000FCFB184B164801221A700023002201F0B6
:103F7000C3FB21462046FFF77FFFFFF71FFEBFF37D
:103F80005B8F114B53E8002F43E800010029F9D162
:103F9000BFF35B8FA7E700BFC80E0020CC0E002048
:103FA000F47E00004F870000BC7C00006C8700009E
:103FB000E80E0020DD3C0000878700003D3D00004A
:103FC000A80600205D110020FC0E002010B503287B
:103FD00086B00A460ED9124B05931248022304AA52
:103FE0004FF482516FF01504049303F009FA204650
:103FF00006B010BD0C4B03EBC00153F8300009793B
:1040000003F0EEF904460028F1D0084B059305486B
:10401000022304AA4FF48251049303F0F1F9E6E776
:104020009B870000BC7C0000147F0000EE8600002F
:104030007FB5FDF7DFFA074B05930223049306488B
:10404000002304AA4FF48251FDF7BCFB0020FEF7C9
:1040500075FE00BFCA870000C47C00004FF080538B
:10406000D3F83021082A06D1D3F83431052B02D8F1
:10407000024AD05C70470020704700BFED87000007
:10408000024AD2F80034002BFBD0704700E0014018
:1040900010B503F0C3F940B14FF080430022C3F8DC
:1040A0000C21C3F81021C3F8382503F0B7F9002814
:1040B00046D04FF08052604BD2F80414C3F820155C
:1040C000D2F80814C3F82415D2F80C14C3F8281534
:1040D000D2F81014C3F82C15D2F81414C3F8301504
:1040E000D2F81814C3F83415D2F81C14C3F84015CC
:1040F000D2F82014C3F84415D2F82414C3F8481594
:10410000D2F82814C3F84C15D2F82C14C3F8501563
:10411000D2F83014C3F85415D2F83414C3F860152B
:10412000D2F83814C3F86415D2F83C14C3F86815F3
:10413000D2F84014C3F86C15D2F84424C3F87025A3
:10414000FFF78CFF18B13D4B3D4AC3F88C26FFF7B3
:1041500085FF18B13B4BFB22C3F81825FFF77EFF04
:1041600070B14FF080414FF08053D1F8E42ED3F876
:10417000583222F00F0203F00F031343C1F8E43E5C
:10418000FFF76CFF20B1304B4FF40072C3F84026AC
:1041900003F044F948B14FF08043D3F80024D2072C
:1041A00044BF6FF00102C3F800244FF08053D3F8EE
:1041B0003021082A0ED1D3F83431052B02D8234AF6
:1041C000D35C3BB14FF01023D3F808224FF080436B
:1041D000C3F858254FF01023D3F80022002A03DB40
:1041E000D3F80432002B22DA194901234FF01020B2
:1041F000C1F804351224FFF743FFC0F80042FFF76F
:104200003FFFC0F80442FFF73BFF0023C1F804352D
:10421000FFF736FFBFF34F8F0E490F4BCA6802F40A
:10422000E0621343CB60BFF34F8F00BFFDE70B4B42
:104230000B4A1A6010BD00BF00C000400050004093
:104240004881030000F0004000900240E787000032
:1042500000E0014000ED00E00400FA0568000020E5
:104260000090D00370B501250268B2FA82F3C3F161
:104270001F035E1CDCB214D0BFF35B8F05FA03F39F
:1042800022EA030350E8006F964204D140E8003C64
:10429000BCF1000FF6D1BFF35B8FE5D102480C7083
:1042A00070BD0248FCE700BF0000AD0B0200AD0B83
:1042B0000368CB40DB0710B515D4012303FA01F1E5
:1042C0000368BFF35B8F41EA030250E8004F9C4252
:1042D00004D140E8002CBCF1000FF6D1BFF35B8F96
:1042E000EED1024810BD0248FCE700BF0000AD0B54
:1042F0000400AD0BF7B5044618B1012829D003B06E
:10430000F0BD4FF080430222C3F80823C3F8040134
:10431000D3F804210122DA6001239C428DF8073092
:1043200014BF00250DF1070542F210774FF08046CB
:10433000D4B1012CE3D125B1D6F80C3403F001033C
:104340002B70D6F80C34DB0318D4134B00225A71AF
:10435000D5E74FF080430022C3F80803C3F80021DB
:10436000D3F800215860D7E725B1D6F8183403F008
:1043700003032B60D6F81834DA03C0D52DB9012019
:1043800003F056F8013FD3D103E09DF80730012B2D
:10439000F5D0012CD9D0B2E7000F0020044B1A79D8
:1043A00022B9012218609A8002487047024870477B
:1043B000000F00200000AD0B0C00AD0B4FF0804350
:1043C00010B5D3F800216AB10022C3F80021D3F858
:1043D00000210122C3F80823114B587910B95A71F2
:1043E0001B6898474FF08043D3F8042172B1002234
:1043F000C3F80421D3F80421D3F81824D3F81814EF
:10440000920704D10122C3F818259A6010BD022238
:10441000C3F80823024BBDE810401B680120184771
:10442000000F0020036803F01F025B09012B0260EC
:10443000024818BF4FF0A040704700BF0003005073
:10444000034B083033F81000C0F34010704700BF32
:104450006C00002070B500F108030C4C34F81330E8
:10446000DA0505460E4607D5C3F3432304EBC30222
:1044700054F8333052689847A3682BB1E26831464C
:104480002846BDE87040184770BD00BF6C00002092
:10449000124A083010B432F81030D9051BD5C3F3D6
:1044A000432123F4F85322F8103002F110040020C5
:1044B00034F8023B13F4807F03D0C3F343239942C3
:1044C00009D001303028F3D1002342F831300448BC
:1044D00010BCFFF7EDBE10BC704700BF6C000020A1
:1044E000E000002038B50246FFF7AAFF094C02F1B0
:1044F000080540B134F8153007495B0B03F5A2738A
:10450000002041F823001046FFF7C2FF002324F8E3
:10451000153038BD6C000020006000402DE9FF41DF
:10452000044617461D4621B34E4E00F1080836F8E2
:1045300018309B0706D5FFF783FF18B14A4804B02F
:10454000BDE8F0810023CDE900338DF80E308DF801
:104550000F300DF10F020B4620460DF10E0102F057
:10456000B5FF36F8183023F0020343F0010326F8B4
:10457000183097B13B4B3E787A6804F1080033F865
:1045800010108F070CD5002AD8D133F8102022F054
:104590001C0242EA860223F81020CDBB3348CEE746
:1045A00021F02001C904C90C23F81010002AECD016
:1045B000032EC3D817782EB92D4A07F5A27142F8F9
:1045C0002160E2E7BA0002F1804202F5C04241EA0E
:1045D0004731D2F810C52CF0030CC2F810C5D2F840
:1045E00010C52CF44F3C2CF4407CC2F810C5D2F816
:1045F00010E54FEA042C0CF47C5C4EEA064E4CEAC3
:104600000E0C41F0200123F81010C2F810C5BCE7D1
:10461000D5E900672046FFF73BFF002EBED0114DC5
:104620002B689E4204D16B689F4201D100220AE0B0
:1046300010480DF10F01FFF715FE0C4B98427FF467
:104640007EAF9DF80F2045F8326005EBC2030834B9
:104650005F6035F8143043EA422343F4807325F851
:1046600014309BE76C0000200400AD0B0000AD0B84
:1046700000600040E0000020F0B5044685B015461B
:1046800019B3334E00F1080736F81720930703D407
:10469000FFF7D6FE002858D112F01C0F02D04B783D
:1046A000012B52D001238DF80F300023CDE90013E8
:1046B0004A1C8B1C20460DF10F0102F007FF36F853
:1046C000173043F0030326F8173015B9214805B019
:1046D000F0BD1F4E04F1080736F81700830734D5E4
:1046E00095F800C06146890020F0200001F180416A
:1046F000C00401F5C041C00C26F817000023C1F822
:1047000010356A78002AE1D0D1F81035AD7823F45D
:10471000991323F4F853C1F81035D1F810E52302AA
:1047200003F47C53120402F4403243EA0E031343B1
:104730002A0502F4801240EA4C30134340F0200076
:1047400026F81700C1F81035C0E70348BFE700BFDF
:104750006C0000200000AD0B0400AD0B014BC3E961
:10476000020170476C00002008B50246FFF768FEA2
:1047700038B1054B0548083233F812305B0B0B702B
:1047800008BD0348FCE700BF6C0000200000AD0B33
:104790000400AD0B38B50F4C94F87850BDB96022C9
:1047A000294604F1100002F0A7FB0620FDF70CFDDE
:1047B000094B0A48C3F87C51D3F87C214FF00042E2
:1047C000C3F80423012384F87830636738BD0448B4
:1047D000FCE700BF6C000020006000400000AD0B53
:1047E0000500AD0B034B93F87800003818BF01208B
:1047F000704700BF6C00002001460148FFF758BD1C
:10480000DC00002001460148FFF72CBDDC00002041
:1048100037B50446FFF714FE04F108021E4B33F8C7
:104820001230E8B113F002051AD15B0B9A0002F1C5
:10483000804000F5C24002F1804202F5C0420560AE
:104840000068D2F8100540F00100C2F8100529B147
:10485000012202FA03F3114AC2F8043303B030BD57
:10486000C3F38203042B12D0052B12D001A80194AC
:10487000FFF7D8FD019BD0F81015D94001F00101D8
:104880000231204603B0BDE8304002F066BE03218D
:10489000F7E70221F5E700BF6C0000200060004050
:1048A00008B50246FFF7CCFDC0B102F108010E4B7E
:1048B00033F81130990711D45B0B01229A409B0009
:1048C0000A4903F1804303F5C043C1F80823D3F834
:1048D000102522F00302C3F8102508BDBDE80840EA
:1048E0000021104602F039BE6C000020006000403C
:1048F0000E4B00F1080213B533F81230DB07044603
:1049000011D5FFF7CDFF2046FFF7ECFD01A801947C
:10491000FFF788FD019B03F5E073022240F8232096
:10492000034802B010BD0348FBE700BF6C00002045
:104930000000AD0B0400AD0B2DE9F04F644B654852
:104940006549002687B0012234461D6835B1D0F88C
:10495000045315421EBF1C601D68164304338B426E
:104960004FEA4202F1D1DFF86C81D8F87C31002B9C
:1049700000F091804FF0A043D3F820250492C3F8B3
:104980002025D3F820280592C3F8202800270DF110
:1049900010097B0100934FF0010A49E0009B4F4A48
:1049A00094FAA4F4B4FA84F41C4404F10803E00873
:1049B00032F81330039404F007020AFA02FC19F8E3
:1049C000002022EA0C0209F8002003A8C3F38205A4
:1049D0009908FFF727FD039A02F5E0724B0750F89C
:1049E0002220AB46C2F3014229D520465946D5B212
:1049F000FFF730FD03A80394FFF714FD039B03F5B5
:104A0000E07350F82330C3F301439D4207D10021E6
:104A1000204602F0A2FD2946204602F09EFD03A892
:104A20000394FFF7FFFC039B0AFA03F3C0F8203559
:104A300059F82740002CB1D1CFB90127A9E7022AA4
:104A40000CBF032102212046019202F086FD032DB6
:104A500004D0019A022A06D1012DE0D15946204600
:104A6000FFF7F8FCDBE7032AD9D1022DF5E7C8F8F8
:104A70007C41D8F87C311A494FF0A043D3F8202567
:104A80000492C3F82025D1F820350593C1F82035CC
:104A900013437FF47BAF012416B907B0BDE8F08F54
:104AA00096FAA6F3B3FA83F304FA03F29B0003F138
:104AB000804303F5C04326EA0206D3F81005D3F875
:104AC0001015C0F30520C1F30141FFF7C3FCE3E774
:104AD0000061004000600040206100406C00002048
:104AE0000003005001460148FFF7BCBBE80000206E
:104AF0002DE9F04106792B4D4FF0340C0CFB06FCF0
:104B000005EB0C0494F82D70002F49D10068636008
:104B10004B7B84F832308B7B45F80C20A76091F8F2
:104B20000FC084F8307084F82F7084F83330CBB124
:104B3000BCF1000F05D1D1E90043C0F80845C0F829
:104B40000C358B68C0F824351AB140F30730FDF7F7
:104B50003BFB342303FB06551348012385F82D3016
:104B6000BDE8F0810C68114B04F01F076409012CAB
:104B700018BF4FF0A04807F5E07408BF984640F210
:104B80000C6E48F824E04C6804F01F076409012CFF
:104B900018BF4FF0A04307F5E07443F824E0C7E7DF
:104BA0000348DDE7080F00200000AD0B00030050B4
:104BB0000500AD0B036802790621C3F80015044B0C
:104BC000342101FB0233022283F82D20704700BFFD
:104BD000080F0020F0B55A4D5A4CD5F8243187B053
:104BE000FBB10023C5F82431D5F82431D5F80431C0
:104BF000BBB9A368C5F808330223A360A368C5F84E
:104C00000433D5F860311BB1D5F800329E0503D4CA
:104C10004B4B01221A625A61012384F82E3007B0EF
:104C2000F0BDD5F80431002B53D00023C5F8043172
:104C3000D5F80431236A5D060AD494F82E303BB9C6
:104C400040493F4802F098FC80F0010084F82E00B3
:104C5000236A13F0040721D13B4E94F830C00FCEE5
:104C600001AD0FC533682B60354BC3F86071D3F8C5
:104C70006021C3F85C71D3F85C21BCF1000F02D055
:104C800094F82E2052B10022C3F80022A2602F4ACD
:104C9000C3F808232E4B0822C3F88021284AD2F8F3
:104CA000C434C2F8C43498073CD501238DF80030D1
:104CB00094F830300BB984F82F30236A5B0703D5A2
:104CC00094F82E30002BAAD0D4E9003168469847DA
:104CD000A5E7C5F84831D5F84831237B83B91A4F89
:104CE0000FCF01AE0FC63B68336094F83030002B15
:104CF000D4D1C5F80032A360144BC5F80833C9E716
:104D00004FF40073C5F8003240F20223A36003F1B0
:104D1000CE73C5F80833A368C5F804330123AB602C
:104D20002B627CE7590701D50223BFE7DA0701D5DB
:104D30000323BBE794F82E30002BB7D00423B5E74C
:104D400000300040080F0020140F002002029C01D8
:104D500000E100E00E4B70B553F82040013053F8ED
:104D60002060A64200D870BDD4E900352846984797
:104D700065B1EB6830B10028B8BF4042FF28A8BF3A
:104D8000FF2018705A7842F001025A700834E8E7A0
:104D9000347F00002DE9F04786B0054600AF0E468F
:104DA0004FF02003EFF3118883F31288BFF36F8F66
:104DB00000F0CEFF042D96BF2C4B2D4B53F8253021
:104DC000E9468AB004466A462A49D361032382F839
:104DD00024304FF0000A284BC2F820A0C2E9051584
:104DE00042F8103F254853464FF42951FCF7EAFC9E
:104DF000CD467EB1F369C3F308035BB1204B7B6101
:104E000002233B611D48534607F110024FF48251C3
:104E1000FCF7D8FC2CB1204602F03AFC08B103782C
:104E200003B91848E9468AB06A46174BD061C2E90F
:104E30000534032382F82030144B42F8103F00233E
:104E40000E484FF40951FCF7BDFC3146CD462846CB
:104E5000FFF7EEF888F31188BFF36F8F2046FDF758
:104E600039FE1837BD46BDE8F08700BF4C7F000013
:104E7000F38700000988000005000001EC7C0000B9
:104E80003188000001880000528800000400000101
:104E900008B50A4B012202201A70FFF75BFF01F0F0
:104EA000DFF90320FFF756FF00F06AF9FBF7F2FA8B
:104EB000034A137B23F00103137308BD5E11002026
:104EC0005807002008B50348034A0021121A02F0CF
:104ED0008EFB08BDD00100206011002070B50023BA
:104EE00086B00122CDE90423134E144D01930F2205
:104EF000CDE902321249182303FB005506EBC01618
:104F000004464FF4C07000FB04110E4B00954FF4A3
:104F1000A072304600F0D6F8737B0B482C7523F056
:104F2000040373734FF4046303FB04041C44EE6036
:104F30006C6006B070BD00BFD80600203C0F00209A
:104F40000019002039520000801A002080B52E4B35
:104F5000A6B083F308882D4D2D4E6B692D4F43F479
:104F6000007300246B61E02385F82230EC772C7607
:104F70006C76AC7685F820406B6A43F4E0236B6274
:104F800085F82340FDF71AFDFDF79AF84FF0FF333F
:104F9000AB62EB62FDF76CFEFDF7B2FDFCF7B8FA11
:104FA00040F20113ADF8243006ABB360CDE91F44E5
:104FB000229402F011FB2046FFF7CCFE0120164D93
:104FC000FFF7C8FE00F016FE144BF56105930123B0
:104FD00013490094CDE903434FF480623B46CDE989
:104FE0000144284600F06EF86A7B064622F004026F
:104FF00028466A7302F0FBFB2046FFF76FFF3A4634
:1050000031462846FDF7BCF9C022002000ED00E043
:105010003C0F0020914E000058070020B48800008B
:10502000C014002070B50E4B0E4CA34201D30020DB
:1050300070BDD3E9030141EA000212F003020BD173
:105040009D685A61AA4201D11C33EEE75E690E6089
:10505000013259610144F5E76FF01500E8E700BF40
:105060006C0100206C01002037B50C464FF0200584
:10507000EFF3118185F31288BFF36F8F45695DB13E
:1050800025602B684361836901338361002081F3CC
:105090001188BFF36F8F11E052EA030C03D1256032
:1050A0006FF00B00F3E7CDE900230246083000F073
:1050B000F7FC18B9024B9B685B69236003B030BDF5
:1050C0003C0F00202DE9FF410E9E06730426467317
:1050D0000D9E867300F158050F46D61DC0E9165582
:1050E0000C9A002526F007064037C0E90655C0E9AE
:1050F00019768560C573C56606F1400802920B9A61
:10510000019288440A9A009242460446FDF706F945
:10511000044B65659B6803B11B6F2367404604B071
:10512000BDE8F0813C0F0020F0B587B0002705975F
:10513000109F04970F9F03970E9F0297DDE912655A
:105140000D9F01970C9F00970446FFF7BBFFB5F139
:10515000FF3F08BFB6F1FF3F05D055EA060305D172
:10516000204600F041FC204607B0F0BD034932461E
:105170002B4604F1180000F0C7FEF4E70F7800009A
:105180002DE9F043294C2A4D87B02646AE4204F162
:1051900030040FD300F042FB244CDFF898904FF41A
:1051A000004640F2E737AC4220D307B0BDE8F043F9
:1051B00000F004BD54F8043C059354F8103C0493EB
:1051C00054F8143C039354F8183C029354F81C3CD4
:1051D000019354F8203C009354E90C0154E90A234C
:1051E000FFF770FF54F8303C5E65CEE7636A5A1CE7
:1051F0000DD023EAE37300213846C3FB060151EAD0
:10520000C333D4F8008004D1404600F0EDFB3034C5
:10521000C9E74FF47A720023FAF772FF02460B4691
:1052200008F11800494600F06FFEF0E76C0100201D
:105230006C0100200F78000008B50B4C0B4D4FF0AF
:105240002002EFF3118382F31288BFF36F8F02F015
:105250008AFB2B78A06113B9FCF738FFEFE7FCF766
:105260009DFD0028EBD1F7E73C0F00205E110020E8
:105270002DE9F341044617461E464FF02003EFF395
:10528000118883F31288BFF36F8FC368324A6BB102
:1052900080689168884219D057EA060318D188F3CC
:1052A0001188BFF36F8F6FF00F000CE0916891F9D8
:1052B0000E1021610133E3609368A36088F31188C5
:1052C000BFF36F8F002002B0BDE8F0812169F0E7E5
:1052D00091F90E1090F90E309942A8BF19466FF05F
:1052E0007E029142B8BF11468B422EDD02F0DBF9FF
:1052F0000546CDE9007619482246414600F0D0FB2C
:105300000028E0D04FF02003EFF3118683F31288DA
:10531000BFF36F8F236821699C420AD04BB193F988
:105320000E309942A8BF19466FF07E039942B8BF6C
:105330001946A06802F0B7F900B945B107483146EF
:1053400000F05AFA6FF00A00BDE70025D1E786F3B6
:105350001188BFF36F8FF5E73C0F00205F1100202D
:10536000836870B504466BB3194A926893422CD196
:10537000C368012B03D9013BC360002070BD4FF00F
:105380002003EFF3118583F31288BFF36F8F016958
:10539000806802F088F9204602F09AFA0026A060A0
:1053A00050B190F90E202261866702F020FA094878
:1053B000294600F021FAE0E7E06085F31188BFF3A9
:1053C0006F8FDAE76FF01500D8E74FF0FF30D5E7C1
:1053D0003C0F00205F11002038B504464FF0200339
:1053E000EFF3118583F31288BFF36F8F02F070FA29
:1053F00048B10022826702F0FAF929460548BDE863
:10540000384000F0F9B9D4E902329A4218BF0133AA
:10541000A360F2E75F11002013B54FF02004EFF313
:10542000118184F31288BFF36F8F846844B1013C0B
:10543000846081F31188BFF36F8F002002B010BD2C
:1054400052EA030406D181F31188BFF36F8F6FF026
:105450000F00F3E7CDE900230246024800F020FBED
:10546000ECE700BF5F1100202DE9F04F474E85B0FB
:1054700004464FF0FF384FF0FF394FF02003EFF3B1
:10548000118783F31288BFF36F8FD4F880508DB9E2
:10549000022104F1980002F021F9002835D10023FF
:1054A000CDE90089029304F188023946384800F0BA
:1054B000B5FCE2E7D4F884202B68C4F8803095422C
:1054C00001D1C4F88430D4F8983043F00203C4F812
:1054D0009830EB6823F0040343F00103EB606B6842
:1054E00087F31188BFF36F8F284698474FF020034A
:1054F000EFF3118B83F31288BFF36F8FEB6899077B
:1055000023F001020BD4EA600EE004F190050022C2
:105510000121284602F0F4F90028F8D1BFE73068ED
:1055200023F00303EB6070B9D4F8983023F0020342
:10553000C4F898308BF31188BFF36F8FD8059CD4D3
:1055400000F064FB99E70027D0F800A03B464268D2
:10555000954201460CD1016897B972683160824268
:1055600000D1716040F8083BFFF736FF3946002351
:10557000BAF1000FD8D050460F46DAF800A0E6E79F
:1055800072683960904208BF7760EBE7640F0020D3
:105590005F110020F8B5C3689A0704460E46C3F3AE
:1055A00040051FD45F071FD40A680AB982680A60E1
:1055B000D80744BFA368336037684CBF0225012574
:1055C0007FB31B4B9B68BB4211D102F058F880F0AF
:1055D0000100C0B2D7F89830D907C3F3800223D5B1
:1055E0003AB140B96FF00F050023336013E000209B
:1055F000F0E71B07F6D400232360D7F8843063B9A3
:10560000C7E92044384602F082F8E36843F0040317
:10561000E3603368A3602846F8BD1C60C7F8844087
:10562000F0E76FF01505DFE76FF01205DCE700BF6C
:105630003C0F0020F0B589B004460020C4E92000EA
:105640000E9D04F18800C4E9220004F19000C4E931
:1056500024001DB32879002840F2011008BF012062
:10566000C4F8980000204FF0FF364FF0FF37CDE927
:105670000330CDE90100CDE90667094B00942046CF
:10568000FFF752FD25B1296811B1204601F0FDFF59
:10569000204609B0BDE8F04001F0FCBF0120DFE783
:1056A0006954000013B5019008464FF02001EFF354
:1056B000118481F31288BFF36F8FC16811F00E0F50
:1056C00016D153EA020C08D101A9FFF763FF84F356
:1056D0001188BFF36F8F02B010BD41F00801C160A7
:1056E000019981621030034900F00EFC0120EEE7C1
:1056F0000020ECE71D77000001460148FFF7D2BF0C
:10570000E0070020F7B50C46019016461D464FF005
:105710002003EFF3118783F31288BFF36F8F0846DE
:1057200001F0E7FF55EA060309D101A92046FFF77A
:1057300031FF87F31188BFF36F8F03B0F0BDE368CB
:10574000064943F00803E360019BA36204F11000E3
:1057500032462B4600F0D8FB0120EAE71D77000017
:1057600001460148FFF7CEBFE007002038B5074DDE
:105770002C6854B1FEF7C2F9054B04441C6128683B
:105780000021BDE8384002F0FEB838BD740F00209B
:105790003C0F0020F8B504460D464FF02003EFF310
:1057A000118783F31288BFF36F8F104E00214FF4DF
:1057B000004C40F2E730316100234FF47A72E4FB91
:1057C0000C01FAF79DFC002C094B0ADC1860094B10
:1057D000B0681D60FFF7CAFF87F31188BFF36F8FB2
:1057E000F8BD0228B8BF0220F0E700BF3C0F002040
:1057F000740F0020700F002049B9EFF3058030B915
:10580000054BDA699B689A4201D0FCF733BD81F3FE
:105810001188BFF36F8F70473C0F00204FF02003BB
:10582000EFF3118183F31288BFF36F8F044B9A68F3
:10583000D37B013BD37381F31188BFF36F8F704724
:105840003C0F002038B502460C480D4D01F0C9FF51
:10585000044600B9EC68AB684AB95A7BD20606D157
:10586000A26922B9DA897F2A01D9EB6138BD9C424D
:1058700002D02046FFF77AFFEC61F7E75C0F0020CB
:105880003C0F002070B590F90D20437B002A0146A3
:1058900004DA03F07F03437301F06BFF4B7B154A7F
:1058A00063F07F034B73D2E9083402F12005AB4269
:1058B0001BD0D3B191F90E6093F90E0086420FD040
:1058C000801B00280CDD5868C1E900300160596078
:1058D0009068431A5842BDE870405841FFF7B2BF84
:1058E000A34202D01B68002BE6D1C1E9005421601D
:1058F0005162EDE73C0F002038B54FF02003EFF385
:10590000118583F31288BFF36F8F174B174A9C687A
:1059100011688C4207D12046FFF728FF85F31188D4
:10592000BFF36F8F38BD00211160114A1268C2B1F8
:10593000E2897F2A15D8627BD20612D10D4A94F9EA
:105940000E10126891420CDB0B4A944209D01A697E
:10595000824203DC2046FFF795FFDCE7121A1A614A
:10596000DCE70022FBE700BF3C0F00206C0F0020AB
:10597000740F0020700F0020D806002070B490F93A
:105980000D20437B002A2ADBDA0628D1826932BB4C
:10599000144A63F07F034373D2E9083402F120050F
:1059A000AB4217D0B3B190F90E6093F90E108E424E
:1059B0000BD0891B002908DD5A68C0E9003210604D
:1059C000586070BC0020FFF73DBFA34202D01B68A7
:1059D000002BEAD1C0E9005420605062F1E770BCAE
:1059E000704700BF3C0F002010B54FF02002EFF3CE
:1059F000118482F31288BFF36F8F427B510704D466
:105A000084F31188BFF36F8F10BD22F0040242733C
:105A1000FFF7B4FF21460248BDE81040FFF7ECBE97
:105A20005F11002008B590F90D20437B002A014644
:105A300004DA03F07F03437301F09BFE044B986884
:105A4000431A58425841BDE80840FFF7FBBE00BF6B
:105A50003C0F00202DE9F041064615461C464FF04C
:105A60002003EFF3118783F31288BFF36F8F01F0E8
:105A7000F0FE87F31188BFF36F8FB4F1FF3F08BFCB
:105A8000B5F1FF3F08D02A46234606F11800034926
:105A9000BDE8F04100F038BABDE8F0810F780000B1
:105AA00010B5074B9868074B0C4618601146DDE9A6
:105AB0000223FFF7CFFF2046BDE81040FCF7DABB1A
:105AC0003C0F00206C0F0020F8B504464FF0200377
:105AD000EFF3118683F31288BFF36F8F437BDA06EF
